:020000041000EA
:1000000000B5324B212058609868022188439860DF
:10001000D860186158612E4B002199600221596106
:100020000121F02299502B49196001219960352056
:1000300000F044F80222904214D00621196600F024
:1000400034F8196E01211966002018661A6600F04E
:100050002CF8196E196E196E052000F02FF8012189
:100060000842F9D1002199601B49196000215960AB
:100070001A491B48016001219960EB211966A021F2
:10008000196600F012F800219960164914480160C1
:100090000121996001BC002800D000471248134993
:1000A000086003C880F30888084703B5996A0420EC
:1000B0000142FBD001200142F8D103BD02B5186610
:1000C0001866FFF7F2FF186E186E02BD00000240BE
:1000D000000000180000070000035F00212200005C
:1000E000F4000018222000A00001001008ED00E03C
:1000F00000000000000000000000000074B24E7A12
:1001000000200420F7010010C3010010C5010010F9
:10011000C1010010C1010010C1010010C101001097
:10012000C1010010C1010010C1010010C701001081
:10013000C1010010C1010010C9010010CB01001065
:10014000CD010010CD010010CD010010CD01001037
:10015000CD010010CD010010CD010010CD01001027
:10016000CD010010CD010010CD010010CD01001017
:10017000CD010010CD010010CD010010CD01001007
:10018000CD010010CD010010CD010010CD010010F7
:10019000CD010010CD010010CD010010CD010010E7
:1001A000CD010010CD010010CD010010CD010010D7
:1001B000CD010010CD010010CD010010CD010010C7
:1001C00000BE00BE00BE00BE00BE00BE00F04BF888
:1001D000103800BEF2EB8871148200103C820010CF
:1001E0003402001090A31AE700202149086006C8D5
:1001F00081F3088810471F48006800282FD10DA4FC
:100200000ECC002902D000F012F8F9E71A491B4A77
:10021000002000E001C19142FCD1194988471949E9
:1002200088471949884700BEFDE701C901C29A42C3
:10023000FBD370473C820010C0000020EC0A002075
:10024000688C00100000042000000420688C00105E
:1002500000100420001004200000000070470B482C
:1002600004F0C8F80047EFF30580C0B27047000003
:1002700008ED00E0000000D0F00A0020280F002068
:10028000D125001075030010F52600105756000008
:1002900006005250ABB360537C81001006005250F0
:1002A000861C03028C810010060052505422A29D2D
:1002B0009481001005005250DE65F468688C0010CF
:1002C000F8B5C04610B5064C2378002B07D1054B76
:1002D000002B02D0044800E000BF0123237010BDB2
:1002E000F00D002000000000586A0010044B10B50B
:1002F000002B03D00349044800E000BF10BDC046F6
:1003000000000000F40D0020586A001010B51549D7
:1003100082B0154801F0C6F90321042001F096F8D7
:100320000321052001F092F800220121042001F0B0
:10033000A5F800220121052001F0A0F8FA20800094
:1003400001F0B4FD6B46DC1D200000F0FFFF2378B8
:10035000012B02D0054805F099FA054805F096FAF8
:1003600002B010BD801A0600E4010020586A001097
:10037000746A0010F0B5DE46454657464E46E0B575
:1003800091B005F08FFA604B02221B68002198683B
:10039000002305F0DFFDFA20800001F087FD00F06A
:1003A0006DF9F820000200F03BFAFFF7AFFF574B62
:1003B00000259946564B574C9A46574B9B46F82377
:1003C0001B02984669E0301C04F024FF02000B0079
:1003D00007A8494603F0CAFF059E0021301C04F01F
:1003E0000DFF002875D0301C04F014FF02000B0034
:1003F0000AA8494603F0BAFF069E0021301C04F00B
:10040000FDFE002875D0301C04F004FF02000B0034
:100410000DA8494603F0AAFF4346FC271F26029574
:1004200001936368052100930520236807AAFF0054
:1004300000F050F90295019763681F210093052091
:1004400023680AAA00F046F90295019663683921EB
:100450000093052023680DAA00F03CF9434602955D
:10046000019363685A46009378210720236800F0BF
:1004700031F9029501976368782100931B20236866
:10048000264A00F027F902950196636878210093C7
:100490002F202368224A00F01DF905A906AA04A806
:1004A00000F024FB049E0021301C04F0A7FE00286D
:1004B00089D1301C04F0AEFE02000B0007A85146A3
:1004C00003F054FF059E0021301C04F097FE002825
:1004D00089D1301C04F09EFE02000B000AA8514690
:1004E00003F044FF069E0021301C04F087FE002824
:1004F00089D1301C04F08EFE02000B000DA851467D
:1005000003F034FF88E7C04694020020886A001098
:10051000906A0010C4010020986A00102481001025
:100520009C6A0010F0B54F46D6464646C0B50378E3
:1005300082B05D1E471CEDB2002B2FD06B46DE1D36
:100540001F4B9A467F23994603E0013DEDB2FF2DF4
:1005500024D03B78002133705346188800F092F97C
:1005600001223100174806F067FABB1C7C789846D8
:100570004F464B462740234216D164B24746002CD3
:10058000E3DA434618780137FF2801D1FA2040000A
:10059000013DEDB201F08AFCFF2DDAD102B0E0BCE2
:1005A000BA46B146A846F0BD53460121188800F06E
:1005B00069F941463A00034806F03EFAB844DCE7E0
:1005C000D401002000000440F0B5D6464F46464610
:1005D00099462A238046C0B5264E82B0264D01ACEE
:1005E0008A46308800212370170000F04BF9012261
:1005F0002100280006F020FA4046002318306070E1
:100600000121308818372370A370E77000F03AF9A1
:1006100021000422280006F00FFA6A462B233088B6
:10062000D370002100F02EF96B460122D91C28005E
:1006300006F002FA534663704B4630880121E3709E
:1006400000F020F921000422280006F0F5F96A469E
:100650002C233088D370002100F014F96B4601225E
:100660002800D91C06F0E8F902B0E0BCBA46B14651
:10067000A846F0BDD40100200000044070B500F091
:100680000BF90F4C0021208800F0FCF80D4D0021E3
:10069000288800F0F7F8052001F008FC01212888DF
:1006A00000F0F0F80848FFF73DFF0848FFF73AFF71
:1006B0000748FFF737FF0121208800F0E3F870BDFD
:1006C000D0010020DC010020EC7D0010287E00100D
:1006D000387E001082B0F0B557464E46DE4645469D
:1006E000E0B515008DB0069119A909881A0A17936B
:1006F0008A46DFB21AA9D3B209880493454B040095
:1007000089461888002100F0BDF82E78002E6FD0A1
:100710004B461B0A019353461B0A00936B1C07931D
:10072000049B2000013B08937B1E09933A4B9B4698
:100730004B46D1469A46C31905934F2B67DD049A61
:10074000069B9446634499B28C4613006344069119
:100750009F2B4DDC00200597202E43D06B46099A35
:10076000197E089B8218CB18DBB2D2B2189CFFF717
:100770002BFF049B002B33D0203E5E43002F2FD055
:100780007600A31902930023039380231B0298464B
:100790000BAD029B00241E8810E0009B2B704B4683
:1007A0006B705B460121188800F06CF8013402225E
:1007B00029001A4806F040F9BC4208D233004246EC
:1007C000A3401342E9D1019B2B705346E8E7029AFC
:1007D000039B02320292049A013303939A42D8D8BF
:1007E0006B46988A079B1E7801330793002EA2D18F
:1007F000084B0121188800F045F80DB0F0BCBB464D
:10080000B246A946A046F0BC08BC02B01847C0B228
:10081000A4E7C046D0010020D4010020000004401D
:1008200070B5154E82B004000021308800F02AF81F
:100830009F234F2200210020FFF7C6FE6A46230AAD
:1008400013710E4B01211888547100F01BF8A0257C
:100850005024013C02220A4801A9A4B206F0ECF897
:10086000002CF6D1013DADB2002DF1D1012130882F
:1008700000F008F802B070BDD0010020D4010020C3
:10088000000004400123D02283401206002901D039
:10089000536170479361FCE7F8B501241749184884
:1008A00000F022FE174B0121186800F0CFFD164B17
:1008B0000121186800F0CAFD144B1D88280000F0C3
:1008C000F5FD2300AB40D0252D066B62104B1E8832
:1008D000300000F0EBFD2300B3400E4E6B62378812
:1008E000380000F0E3FD2300BB406B6233880A4808
:1008F0009C406C6104F080FE0020F8BD001BB70036
:1009000000000440CC010020D8010020DC010020C0
:10091000D4010020D0010020647E0010F0B5DE4636
:1009200057464E464546E0B589B005926C4A0E26BC
:1009300013886C4D0133138004AB9C46342366440A
:100940003370333B8046320089460093682128008B
:100950009B4600F0D1FE04AB9C460F240023644468
:100960009A462200682100932800013300F02CFFF2
:10097000332333705B4627783200682100932800C8
:1009800000F0BAFE5346220068210093280001338C
:1009900000F01AFF237859461B021F433BB2039312
:1009A00036233200337028000091353B673100F068
:1009B000A3FE51462200012300912800683100F077
:1009C00003FF352359462778337032000091343BBA
:1009D0006731280000F090FE51462200012300916B
:1009E0002800683100F0F0FE237859461B021F43AF
:1009F00038233200337028000091373B673100F014
:100A00007BFE51462200012300912800683100F04E
:100A1000DBFE372333705B463200564621782800D0
:100A200004910093682100F067FE220001236821F1
:100A30002800009600F0C8FE039804F019F8002280
:100A4000294B03F0A4FFFC2300229B0503F09FFF2A
:100A500004F056F843463FB21860380004F008F836
:100A60000022214B03F093FFFC2300229B0503F09F
:100A70008EFF04F045F84B46247804991860200254
:100A8000084300B203F0F4FF0022174B03F07FFF8E
:100A9000FC2300229B0503F07AFF04F031F8059B4C
:100AA000041C186043460021186804F09FFB0028CE
:100AB00006D04B460021186804F098FB002807D1A7
:100AC000012009B0F0BCBB46B246A946A046F0BD25
:100AD0000021201C04F08AFB43425841F1E7C04644
:100AE000200F0020E401002000409F40F0B5574651
:100AF0004E464546DE461423E0B58BB0029304AB68
:100B00000B279C460026E74D03900491059207AC05
:100B1000674406E0029B013BDBB20293002B00D14D
:100B2000BBE1012001F0C2F9DF4B220023806821E4
:100B300002232800009600F0DFFDDC4A0223228019
:100B4000682122002800009600F0D6FDD84B220034
:100B50002380682102232800009600F0CDFDD54BAC
:100B600022002380682102232800009600F0C4FDA3
:100B70007F220223228093466821220028000096CB
:100B800000F0BAFD032291463A70023A90460123E2
:100B90006821009228003A0000F0AEFD01232200F7
:100BA00068212800009600F00FFE2278022392466A
:100BB0004A46514622701D320A4362706821220063
:100BC0002800009600F098FD052001F06FF94A46D4
:100BD0002021227052468A4362700223220048314B
:100BE0002800009600F088FD3B2342463B706821B8
:100BF00000923A3B3A00280000F07EFD01232200DB
:100C000068212800009600F0DFFD2278A64B92466E
:100C1000514604AA1174238022000223682128006F
:100C2000009600F069FD052341463B703A000091B3
:100C3000043B6731280000F05FFD0123220068219A
:100C40002800009600F0C0FD05222378682122705C
:100C50006370220002232800009600F04DFD5B46E1
:100C60002200238068217D3B2800009600F044FD8F
:100C700043465246134200D14CE78B4B220023805F
:100C8000682102230096280000F036FD874B2200E1
:100C90002380682102230096280000F02DFD864B5A
:100CA00022002380682102230096280000F024FD02
:100CB000824B22002380682102230096280000F046
:100CC0001BFD5B462200238068210223009628003A
:100CD00000F012FD4B463B7043463A0068210093FA
:100CE0002800012300F008FD01232200682100965E
:100CF000280000F069FD2378682198464B4642465B
:100D000023702023134363702200022300962800DF
:100D100000F0F2FC052001F0C9F84B4620222370B8
:100D20004346934363702200022300966821280003
:100D300000F0E2FC08AB984601239A4600233B26CC
:100D4000994653463E703A006821009328000123DB
:100D500000F0D2FC4B4622000093682101232800BA
:100D600000F032FD424623780136137001239C4681
:100D7000F6B2E044412EE4D14B4B220023804B4697
:100D8000682128000093022300F0B6FC53463C3E45
:100D90003E703A00682128000093012300F0ACFC6B
:100DA0004B462200682128000093012300F00CFD2F
:100DB0002378220063704B46267068212800009338
:100DC000022300F099FC7F2323804B4622006821F8
:100DD00028000093022300F08FFC04AB1020185E63
:100DE00003F046FE0022364B03F0D1FD0022354BC6
:100DF00003F0CDFDFC2300229B0503F0C8FD03F0AA
:100E00007FFE04AB061C1220185E03F031FE0022A8
:100E10002B4B03F0BCFD00222A4B03F0B8FDFC2352
:100E200000229B0503F0B3FD03F06AFE04AB051C32
:100E30001420185E03F01CFE0022214B03F0A7FDD6
:100E40000022204B03F0A3FDFC2300229B0503F0AE
:100E50009EFD03F055FE041C039B059A1E60049E34
:100E6000002135601460186804F0C0F9002812D021
:100E70000021306804F0BAF900280CD00021201CB1
:100E800004F0B4F9434258410BB0F0BCBB46B24643
:100E9000A946A046F0BD0120F6E70024251C261C2B
:100EA000DAE7C046E40100207F300000038CFFFF3A
:100EB000041000000581FFFF041100000586FFFFFC
:100EC0000000104000005940F0B5DE4657464E463F
:100ED0004546E0B5002685B0534D544B03AC238006
:100EE0008146884617009A4622000223682128007E
:100EF000009600F001FC072323704B46220063702C
:100F0000682102232800009600F0F6FB08232370D6
:100F1000434622006370682102232800009600F0F7
:100F2000EBFB0A23677023702200682128000096DB
:100F3000083B00F0E1FB3E4B2200238068210223A6
:100F40002800009600F0D8FB7F23220023809846DB
:100F50006821280000967D3B00F0CEFB03239B46D2
:100F60006B465A46DA720123083200936A446821BC
:100F70002800994600F0C0FB2200012368212800C8
:100F8000009600F021FC5B462778237020233B432A
:100F900022006370682102232800009600F0ACFB59
:100FA000052000F083FF5B4623701D339F4367706D
:100FB00022006821280000961E3B00F09DFB53464E
:100FC00022002380682102232800009600F094FB71
:100FD00005276B460B22DF724B466A44009368215B
:100FE000280000F089FB22000123682128000096D8
:100FF00000F0EAFB23782200637027700223682147
:101000002800009600F078FB4346220023806821E8
:10101000280000967D3B00F06FFB05B0F0BCBB469E
:10102000B246A946A046F0BDE40100207F30000092
:101030000981FFFFF0B5DE4657464E464546E0B50E
:10104000002687B0654D664B05AC23809B46220089
:10105000022368212800009600F04EFB614B22001D
:101060002380682102232800009600F045FB04231A
:10107000220023806821023B2800009600F03CFB00
:10108000594B22002380682102232800009600F09B
:1010900033FB7F232200238068217D3B28000096BC
:1010A00000F02AFB032202AB9C460B2792466744C2
:1010B0003A70023A904601236821009228003A00D3
:1010C00000F01AFB0123220068212800009600F09E
:1010D0007BFB227820239146524622704A461343D6
:1010E00068212200637028000223009600F004FBB0
:1010F000052000F0DBFE5246202322704A469A4328
:1011000062700223220068212800009600F0F4FAA1
:101110003B2342463B70682100923A3B3A0028004C
:1011200000F0EAFA0123220068212800009600F06E
:101130004BFB22783C23914642463B70682100924B
:101140003B3B3A00280000F0D7FA01232200682137
:101150002800009600F038FB2278022303925A46BA
:101160006821228028002200009600F0C5FA05229E
:101170003A709246424601236821009228003A00C4
:1011800000F0BAFA0123220068212800009600F03E
:101190001BFB5246237868212270637022000223D1
:1011A0002800009600F0A8FA7F23220023806821FF
:1011B0007D3B2800009600F09FFA4B460020482B0C
:1011C00004D10398093843425841C0B207B0F0BC7B
:1011D000BB46B246A946A046F0BDC046E401002089
:1011E0007F300000038CFFFF0582FFFFF0B587B062
:1011F00000257F266B464E4C9E82682102232000EC
:1012000005AA009500F078FA6A464A4B6821938255
:101210002000022305AA009500F06EFA0A2000F0D3
:1012200045FE83236A465B009382053B68212000CC
:10123000FF3B05AA009500F05FFA6A463E4B682125
:1012400093822000022305AA009500F055FA80231E
:101250006A461B01938268210223200005AA00959B
:1012600000F04AFA6A46354B682193822000022337
:1012700005AA009500F040FA10236A46682193827F
:1012800020000E3B05AA009500F036FA6A462C4B6A
:10129000682193822000022305AA009500F02CFA11
:1012A0006A46284B682193822000022305AA0095F4
:1012B00000F022FA6B4668219E822000022305AAD4
:1012C000009500F019FA642000F0F0FD00232024BE
:1012D0000026002703930493059305AA04A903A8F5
:1012E000FFF71CFB039803F08FFF80B23F180498B0
:1012F00003F08AFF80B23618059803F085FF013CA1
:1013000080B22D18E4B20A2000F0D0FD002CE4D108
:101310000D4B7F1176116D111F805E809D80FFF750
:1013200089FE042231210C20FFF7CEFD07B0F0BD6D
:10133000E40100200680FFFF7F200000013700004D
:101340001108000014330000D00E0020F0B5C6468E
:101350000E22012300250F2600B5154F84B06A44E4
:101360001570682100936E4404003800984600F020
:10137000C3F90123320068213800009500F024FAF7
:101380003378EA2B0FD02570FE220A4B92051A60A3
:101390000023094A1360094A1360094A136004B024
:1013A00080BCB846F0BD43462370FFF71FFFEBE754
:1013B000E4010020F00E0020F40E0020F80E0020C2
:1013C000FC0E002070B5EFF3108C72B60D4D2B683B
:1013D000002BFCD0BFF35F8F0724CB08C618C05C7E
:1013E00001230C40A3401C000440034207D10343E7
:1013F0003370BFF35F8F2C608CF3108870BD1000CA
:1014000001F07AF92C0100D0024B18688007C00F58
:101410007047C04600C006400021044B044ABFF399
:101420005F8F02C39342FAD17047C046000100D0DB
:10143000800100D0044A1078431CDBB2172B00D97E
:10144000102313707047C046E0010020094A830052
:1014500094464022634410B51C68C0006240C0241A
:1014600014408022520113431C60034B9C4660448D
:10147000416010BD04C00140004001400A4B8000A3
:101480009C4604236044002901D00C230821002A33
:1014900000D10B00026853400C221A4080235B01EC
:1014A000184302607047C04604C001400123D022A7
:1014B0008340120693629361094A83009446402256
:1014C00063441968C0004A40C02111408022520183
:1014D00013431960034B9C460523604443607047E7
:1014E00004C0014000400140F8B557468246384BE1
:1014F000454653445A425341802292029446DE4666
:101500004E465B421B0C334A1B046344E0B5136038
:10151000314A0D003149136018008A6890438146B2
:10152000FAD1062001F064FA804680200221EF0DF6
:101530006E02AB0DAA02400005E0904507D3921958
:101540007B4181423FD00C000231002BF5D0802638
:1015500027023F1B760002E03F1B012E35D03900E9
:101560004046B346013E02F09FFF8542F4D2594601
:1015700033029946614353464A461C611B685046F4
:101580005340FF2212021340802252010243136093
:10159000036807205840CF2303401360524680233E
:1015A00003209B0124321A4310605246101D184339
:1015B00002230360404602F077FFF0BCBB46B24610
:1015C000A946A046F8BD0C00C1E72100D3E7C046FC
:1015D0000040FCBF00E0004000F0004000C00040C0
:1015E000F8B5DE4657464E4645468346E0B50520EB
:1015F0000C0001F0FDF9060060082100801902F0DE
:1016000053FF43009846804407000521404602F0FE
:101610004BFF3B1A9A46204B8146700080199C4232
:1016200034D81E4902F040FF451C5B461C6800236D
:10163000E36622680433534006221A4080235B018C
:1016400023431A605346E3614B462362434601201D
:101650004F2B03D95021404602F026FFA023220041
:10166000E0508023E06F7C3245402D045B01134342
:101670002D0C1D60012339003000E36602F014FFD9
:10168000F0BCBB46B246A946A046F8BD044902F0EC
:101690000BFF451CC9E7C0463F420F0080969800EB
:1016A00040787D01104A70B5821A53425A4107238F
:1016B00052429A430D4B10321A600D4B0D4C1A607A
:1016C0001500A3689D432B1EFAD166240268FF34DF
:1016D0000571D5661460633C8833FF3CD563956320
:1016E000D450FFF77DFF70BDE401002000E0004012
:1016F00000F0004000C00040F0B557464E46454659
:10170000DE4690460022E0B583B01E000CAB1B788D
:1017100084469A460368DA6601325960DA66002E1A
:101720004FDD51464A4052020192802291463200DA
:101730008025771E0020464610219046AD000024EB
:10174000002804D162461479621E9441A40200224A
:101750009346B8421AD0325C22435C4622431A6157
:101760005A6B1142FCD04A469C58002C11D1B84209
:1017700022D001308045E2D1634652461A7103B04F
:10178000F0BCBB46B246A946A046F0BD019A9346BE
:10179000E1E75A6D012293465A6B2A42FCD01A6E39
:1017A0005A46002AE5D0002C03D0E30701D42307D2
:1017B000E2D402204042DFE75246002AD9D1D34684
:1017C000EAE70020D8E7C046F0B54546DE46574672
:1017D0004E4693460022E0B51D0009AB1B7804007D
:1017E00098460368DA6601325960DA66002D3EDDFC
:1017F00041464A40520294468022002052009146BF
:101800006F1E803A596F1029FCD0002826D0002680
:101810008021B2464900B84212D0196102E0996FA6
:10182000002913D19958596D0029F8D0022040425F
:1018300043462371F0BCBB46B246A946A046F0BD64
:101840006646514631434E463143E6E759461B69E9
:101850000B5401308542EBD02368D3E7217900296E
:10186000D5D08026A021F600B246C900D3E70020DB
:10187000DEE7C046F8B5040006200D0001F0B8F818
:10188000002844D02A4B2B49E21853425A41802366
:10189000DB039C469205284B62441A60274B1A6072
:1018A00010008B689843FBD1214B8021E3185A42EA
:1018B0005341234A5B0049009952062001F098F8F1
:1018C0002900C00002F0F0FDC30921D14027012109
:1018D000260080256162A36200232C36AD013543CA
:1018E0002B60062001F084F83900800002F0DCFD56
:1018F0006023E26A53406E221A4080235B01334327
:101900001A60104B236310232B600D3BA364F8BDBA
:101910000D4A934203D900230C4F0D49D8E77F228B
:101920001040013040089F0119003F180300CFE725
:101930000080FCBF00C0004000E0004000F000401C
:10194000180F002001030000FEFF0000C0FF3F0051
:10195000FFFF000083680B4810B584466144624471
:10196000090112019A18591854684B6801209C42C9
:1019700001D802D00020C0B210BD12680B689A4294
:10198000F9D8F7E7FFFFFF0F0A4B1968EFF3108054
:1019900072B60A68002AFCD0BFF35F8F1B68BFF3E2
:1019A0005F8F00221A6080F3108840BF0020002162
:1019B0007047C046040F0020F8B557464E464546CE
:1019C000DE46E0B599460CAB1C780DAB1B780600E3
:1019D00090469A460768002C11D1BC7B002C42D05F
:1019E00065003B682D19033D59194B78BB73002BDB
:1019F00000D1FB7300238B704B700B7004E065000B
:101A00003B682D19033D5919B2682A4B944642464A
:101A1000E3181B0163441A604A465A600A9A9A60A6
:101A20000B9ADA6000238B704B700B707B7B9B46AC
:101A3000002B2BD022005946B8687B6898473A683B
:101A4000002816D05B4658465B005B445519033BA3
:101A5000A870D118D35C002B00D06B705B460C7063
:101A60007B73A34513D0F0BCBB46B246A946A04643
:101A7000F8BD5B465B005B44033BD3189C70511977
:101A8000525D002A00D05A705B460B707C73424650
:101A90004B46307D00F018FB051E06D05346002B48
:101AA00003D12100306800F055FD0E9B002BDAD0E9
:101AB0001D70D8E7FFFFFF0FF0B5DE464E465746D4
:101AC00045460023E0B58DB00A936B4B8200D35896
:101AD0000B90994600239B464B46079300F06AFA09
:101AE000079C06000F006268EFF3108572B613685A
:101AF000002BFCD022000794BFF35F8F2468637B28
:101B00009946002B67D092685C4B90464B441B0172
:101B1000984443461A685B6810001900801BB9415D
:101B200000295FDD0B9800F0CFFA002300269846CD
:101B300000279A46079C6368BFF35F8F5A461A6076
:101B400085F310885346002B08D10028C6D10DB06C
:101B5000F0BCBB46B246A946A046F0BD0A9B414632
:101B600018024B461843D047089009916268EFF37A
:101B7000108572B61368002BFCD00794BFF35F8FFB
:101B80000899099A002A48DB114303D0079B1B6977
:101B9000002B5DD1079B1B68D97B002907D04A0029
:101BA000521819688C4649466244033A51704A46B5
:101BB000DA734B46079A013BD168CA5C0132CA54BA
:101BC0005B46079A13615368BFF35F8F5A461A60EA
:101BD00085F3108882E700230026984600279A465E
:101BE0000020A7E7002901D100289BD10021200077
:101BF00000F032FC43461E685F689B68079A9A466D
:101C00004346DB689846D3684B44013B1B780A93F4
:101C10001B020343136100208CE72369002BB9D01A
:101C200033003C005B1A94411A002300A74219D8E4
:101C30009F421BD0594604910121039149460291CC
:101C400041460191514607980091FFF7B5FEB7E76D
:101C500000F0B0F9089A099B06000F0092197B4129
:101C60009942E5D901225242D317E3E79642E1D9DE
:101C700001225242D317DDE7E00E0020FFFFFF0FE5
:101C8000F8B557464E464546DE46E0B5404D8146DE
:101C90008A466A68EFF3108872B61368002BFCD08E
:101CA000BFF35F8F2E68B47B002C39D06700336898
:101CB0003F19033FDB195A78B273002A00D1F2733F
:101CC000A968344A8C464946A21812016244116040
:101CD00051465160304991600021D160997059702E
:101CE0001970737B9B46002B35D022001900B06819
:101CF000736898473268002820D05B4658465B00DE
:101D00005B44D719033BB870D118D35C002B00D0CB
:101D10007B705B460C7073735C451DD0002626E01B
:101D20006B68BFF35F8F1C6088F31088012040420E
:101D3000F0BCBB46B246A946A046F8BD5B465B0078
:101D40005B44033BD3189C70D119D25D002A00D0AC
:101D50005A705B460B7074734A465346287D00F0F8
:101D6000B3F9061EDAD02100286800F0F3FBEB6817
:101D70001B19013B19786B68BFF35F8F00221A6053
:101D800088F310880020002ED2D108022043CFE72C
:101D9000EC010020FFFFFF0F8919001010B5124C55
:101DA0006368002B04D00A21104800F01BFA10BD14
:101DB00023000F4A1021206800F06CFA032000F085
:101DC000EDF8032000F0F0F903200A4900F036F99D
:101DD000FFF730FB084B9C46032360442375074BF9
:101DE00080006060DC60DEE7EC010020040F002072
:101DF00055190010B91A001040000034E00E002000
:101E0000F0B504000D0006267642F717C6463619CF
:101E10006F4100B58F4213D810D000F0CBF83200DC
:101E20003B00121A8B41002B14DC002B37D0290009
:101E3000200000F0F3F880BCB846F0BD8642ECD933
:101E40000026002700F0B6F832003B00121A8B4142
:101E5000002BEADD30003900FFF712FF0028E6DB37
:101E600000239846BC460F4A0F4F7B6A9C4504D816
:101E7000B96A8E42DBD99C45D9D11168EFF3108045
:101E800072B60B68002BFCD0BFF35F8F1368BFF3F3
:101E90005F8F4146196080F3108820BFE5E7002A74
:101EA000C5D0D7E7040F00200040054070B50600FC
:101EB00000F080F8FA2204000D0000233000002119
:101EC000920003F051F9001969418D4205D802D002
:101ED000FFF796FF70BD8442FAD901204042C11736
:101EE000F6E7C046F0B5D6464F464646C0B5EFF3D6
:101EF00005833F22134018001038EFF3108C72B6A0
:101F0000204D2A68002AFCD0BFF35F8F0122110008
:101F100081401D4C884661631C4917000E788A4633
:101F20003100C1400F400A4209D1BFF35F8F2F60DB
:101F30008CF31088E0BCBA46B146A846F0BD1449FF
:101F40008200646A51588C420FD3124BD2584346D8
:101F50009E4353461E70BFF35F8F00232B608CF3AC
:101F60001088002AE6D09047E4E70B4A9B00904691
:101F700043441A681A60BFF35F8F00232B608CF311
:101F80001088D7E7280100D000400540240F00202A
:101F9000080F00204C0E0020D03F054010B5010076
:101FA000024A0348FFF70EFA10BDC046887E0010B3
:101FB000220F0020034B596A0A00986A596A8A4224
:101FC000FAD170470040054070B504000D00124A78
:101FD000536A1900966A536A8B42FAD1300019008D
:101FE00024184D41AB4211D80ED02B000A494A6A41
:101FF0009A42FCD307D1084A02E0516A994202D1C1
:10200000916AA142F9D370BDA642EED90123012401
:102010006442E5175B42E9E700400540064A536A1F
:102020009942FCD807D1044B02E05A6A914202D18E
:102030009A6A8242F9D370470040054070B50400A7
:102040000D00EFF3108672B61A4A1368002BFCD00D
:10205000BFF35F8F002D1BD0200000F0E1FC16497C
:1020600081420AD0200000F0E3FC0121200000F0B2
:10207000C5FC0123A340114A1360114BA400E55095
:10208000BFF35F8F00220B4B1A6086F3108870BD80
:102090000B4BA200D5500122A2400A4920000B7828
:1020A00093430B70044900F0EDFC0021200000F088
:1020B000A5FCE5E7280100D0E51E001038600540CA
:1020C0004C0E0020240F0020F0B54F46D646464661
:1020D000C0B507002F4C616A0D00A66A616AA9426B
:1020E000FAD18B4208D805D00120E0BCBA46B146EF
:1020F000A846F0BDB242F7D9EFF3108A72B626486F
:1021000001680029FCD0BFF35F8F0125BD40234942
:10211000204C8846097889462943C9B28C464146F5
:1021200060460870391D1E48890065630A51B90070
:102130000B50216A0020294219D0616A0800A66A62
:10214000616A8142FAD18B4219D801D1B24216D8C4
:10215000CC451DD00F4B1F201D625D63012307403E
:10216000BB40104A1E38136043464A461A70BFF3FC
:102170005F8F0022084B1A608AF31088B5E70020B1
:10218000BFF35F8F0022044B1A608AF31088ACE71C
:102190000120ECE700400540280100D0240F00207A
:1021A000080F002080E200E0EFF3108C72B60A49BD
:1021B0000B68002BFCD0BFF35F8F01238340074ADD
:1021C0000748136202789A430270BFF35F8F0023BF
:1021D0000B608CF310887047280100D00040054048
:1021E000240F0020024B9C46614489000160704727
:1021F0004000003410B50400FFF71CF90100200076
:10220000FFF7F0FFFF232371BFF35F8F10BDC046C0
:1022100010B50400FFF70EF901002000FFF7E2FF00
:10222000FF23A380BFF35F8F10BDC04670B50500CC
:1022300014001600002915D00C00002A12D0806866
:102240006B689847296800280ED073009B196200BC
:10225000033B1219CB18033A9C7088188A5C002A39
:1022600015D10670200070BD63001B197200033B7E
:102270009219CB18033A9E7088188A5C002A02D102
:1022800004703400EEE75A7004703400EAE75A70C4
:102290000670E7E730B583600023CCB243730133A7
:1022A000047342608373C4730D000068012C06D967
:1022B000421C0133DBB2137003329C42F9D1FF217F
:1022C00029404B005918002340180338437030BD93
:1022D000F8B5CE46474606000C0080B5002907D069
:1022E0004D0003686D18033D5A195778002F04D12B
:1022F0002000C0BCB946B046F8BD7900C919033901
:102300008846434459788946002159705170736852
:102310003A002100806898473368002814D042466C
:102320009A18947059195B5D002B00D053700F7090
:10233000270049463000FFF7CBFF3900020030008C
:10234000FFF774FF0400D3E7424641465D19AF70C2
:102350009A185B5C002B00D06B701470E9E7C046E4
:10236000F0B557464546DE464E46E0B50D006B00DB
:1023700001685B19DF1E0400C85D83B00192CA19B1
:1023800000284CD043001B18033BCB185E78B446A2
:10239000002E16D1019E002E3ED0E67B002E04D0EA
:1023A00073009B19CB18033B5D70E57300282FD198
:1023B0000023537003B0F0BCBB46B246A946A0460A
:1023C000F0BD72006244033A89184A7890460022B0
:1023D0004A7091465A70010032002000FFF726FF34
:1023E00043468246002B07D05B0021684344033BF1
:1023F000CB185A78002A16D1424651462000FFF7E2
:1024000015FF2168019BCA19002BC6D10028CFD027
:1024100043001B18033BCB1800219970C8E7019BB0
:10242000002BBAD1C4E75000801803380918487847
:10243000834648464870587041462000FFF7F6FE34
:10244000594680462000FFF743FF41460200200026
:10245000FFF7ECFE8046CFE7F0B557464546DE462F
:102460004E46E0B583B00191457B04006B000068E7
:102470005B19DF1EC15DC21900294ED04B005B18ED
:10248000033BC3185E78B446002E18D1019E002E7F
:1024900040D0E67B002E04D073009B19C318033B89
:1024A0005D70E573002931D10023280053706173FA
:1024B00003B0F0BCBB46B246A946A046F0BD7200D0
:1024C0006244033A80184278904600224270914656
:1024D0005A7020003200FFF7A9FE43468246002BC7
:1024E00007D05B0021684344033BCB185A78002A8D
:1024F00017D1424651462000FFF798FE019B01008C
:102500002068C219002BC4D10029CDD04B005B1824
:10251000033BC31800209870C6E7019B002BB8D17D
:10252000C2E75000801803380918487883464846A7
:102530004870587041462000FFF778FE59468046A3
:102540002000FFF7C5FE414602002000FFF76EFEA7
:102550008046CEE770B5040000292CD0437B8B4227
:102560002ED0056848004018033828188278002AC1
:1025700021D053009B18033BEA5CEE188A4202D13B
:102580001BE0002A08D053009B18033BEB185A7835
:102590008A42F6D142785A70002301228370437038
:1025A0002000FFF7DDFE617B02002000FFF73EFE0A
:1025B0006073012000E0002070BD43783370EBE7CA
:1025C00001221900FFF7CCFE60730120F4E7C0463A
:1025D0002C4B2D4A70B51A602C4A2D4B2D491A6090
:1025E00014008B689C43FBD12B4D2C4EB54208D276
:1025F000013E761BB60808CD984723000134B3424C
:10260000F9D100F097F8264A214B1A60214A9368C5
:10261000DB43DB01DD09002BF9D14022214B224CA9
:10262000224E9A675A671A67DA66B44208D223685C
:102630002000002B20D00834FFF7EAFDB442F6D387
:102640001B4E1C4CC022A168300002F06DFEA6603B
:10265000FEF7E2FE00F04AFBFFF7A0FB164C174E18
:10266000B44208D2013E361BB60808CC98472B006E
:1026700001359E42F9D170BD0834FFF7BBFDB4426D
:10268000D5D3DDE700E00040BFCDFBFEFE7F3C0080
:1026900000F0004000C00040D80A0020E80A0020F6
:1026A000FFFFFF0100F00140D00A0020D80A0020FF
:1026B0000000002000ED00E0E80A0020EC0A002005
:1026C000094A03001068002805D00849C3188B4246
:1026D00007D81360704706480449C31810608B423E
:1026E000F7D901204042F5E7D80E00200000042071
:1026F000280F002000BEFDE70FB400B5084883B0E6
:1027000002F07AFF049B002B07D005A91800019165
:1027100001F050FE034802F06FFF00BEFDE7C04627
:10272000AC7E0010BC7E001010B50148FFF7E4FF3E
:10273000C07E001030B50C2083B000F03DFBFEF7EA
:1027400063FE00280ED0944B944A1A605A609A6037
:10275000DA601A615A619A61DA611A62904A5A62C1
:1027600003B030BD8F4CA06700F02EFB01228E4BD2
:102770001A60636C012BFCD103228C4B1A60894ACE
:10278000936B012BFCD102240121894A894805332E
:10279000009400F0BDFA0523874A01218748009480
:1027A00000F0B6FA864B5A68FF2A02D880225200FF
:1027B0005A608022784C7D4B21691201804D1A604D
:1027C000002905D0606901F06FFE01300138FDD1AC
:1027D000E0217B4B02201A681140802252012A43DB
:1027E00011601968484003210140116004219A6872
:1027F0001142FCD08022802192012A4309011160FC
:10280000802252005A606F4B23616F4B5968FF2939
:1028100000D85A600321644A6B4B116002399A68F0
:102820001142FCD0E0201A681040802252011A4365
:10283000106018684840032101400220116062497D
:102840008A681042FCD08022920113438022120138
:102850001A6080225D4B52004A6063615C4B59688C
:10286000FF2900D85A6080225A4BE1691201584D65
:102870001A60002905D0606901F016FE01300138A8
:10288000FDD1E02252490B681A4080235B012B43A3
:102890001A60802380229B012B4312011A60802240
:1028A0003E4B52004A60E3614B4B5968FF2900D808
:1028B0005A608022494B216A1201474D1A60002953
:1028C00005D0606901F0F0FD01300138FDD1E02252
:1028D00041490B681A4080235B012B431A60802317
:1028E00080229B012B4312011A60802380225B000F
:1028F0004B602A4BD2022362394B5968914200D275
:102900005A608022374B616A1201354D1A600029E6
:1029100005D0606901F0C8FD01300138FDD1E02229
:102920002F490B681A4080235B012B431A608023D8
:1029300080229B012B4312011A608023DB024B6033
:10294000174B6362284B5A68FF2A02D88022520034
:102950005A608022254BA1691201234D1A6000297B
:1029600005D0606901F0A0FD01300138FDD1E02201
:102970001D490B681A4080235B012B431A6080239A
:1029800080229B012B4312011A6080235B004B6065
:102990000E4BA361E4E6C0465C0E0020006CDC0236
:1029A0001BB70000008000403CB0004030B0004049
:1029B000002F68590080024000389C1C00C0024073
:1029C00030800040001BB7003C8000404059730736
:1029D0005480004054B000406080004060B000402F
:1029E0006C8000406CB000404880004048B000401F
:1029F000014B8000C05870475C0E002001238340CB
:102A0000002904D0034A1360034A13607047034A45
:102A10001360FBE780E200E000E100E080E100E01D
:102A2000024B10309B688000C058704700ED00E0FA
:102A300070B50D00EFF3108672B60F4A1368002BC5
:102A4000FCD0BFF35F8F0D4B10309B6884001B5987
:102A50000B4A934203D09D4201D0FFF765FE074B1E
:102A60009B681D51BFF35F8FBFF35F8F0022024B46
:102A70001A6086F3108870BD240100D000ED00E0DC
:102A8000CD010010F0B5DE4657464E464546E0B54E
:102A90000C0083B0EFF3108A72B65A4A1368002B09
:102AA000FCD0BFF35F8F1022914681444A46564BBB
:102AB00096009B689D59554B98469D4205D0A5426E
:102AC00016D0534FEB1B2F2B14D94F4B9B689D51A6
:102AD000BFF35F8FBFF35F8F00224A4B1A608AF308
:102AE000108803B0F0BCBB46B246A946A046F0BD74
:102AF0001D00EAE7012383409B465A46454B1B686D
:102B00001A4000925A46444B1A60BFF35F8FFDF79C
:102B1000AAFB0190002803D0814501D0FFF704FEF5
:102B200001232A009A4313003C49DB1B5B415943B4
:102B3000090D93689C4208D15AE043001B189B0082
:102B4000FB189868A04211D01A00062010560028E1
:102B5000F3DA009B002B05D05A46314B1A602D4BFF
:102B60001A60B2E75A462C4B1A60AEE70620185698
:102B7000002821DB4200111889007C188846A168D2
:102B80009960E179D97106216156997100291FDB9D
:102B9000A488F91A6405241544440919E024090598
:102BA000490D24022143998012181E4B9200BF1830
:102BB0001A781870BA71CCE7019800280BD1FF3051
:102BC000907119489080174A107811709871C0E779
:102BD000BD210902E7E7154A1549D21A083A500201
:102BE000400D01439980134952080A43DA80B0E747
:102BF0000620105613000028BCDA019A002AEAD1F8
:102C00004546E0E7240100D000ED00E0CD010010D2
:102C10001402002000E100E080E100E0AAAA000028
:102C200080E200E0230F002000BDFFFF4E020020E5
:102C300000F0FFFF00F8FFFFF8B501250400054391
:102C4000FDF711FBEFF3108C72B6214A1368002BCD
:102C5000FCD0BFF35F8F1F4E2100B7681E4A1F4B89
:102C6000891A49414B431B0D59B28300F858A842B9
:102C70001CD00623D3568B421CD01223D3568B4232
:102C800022D01E23D3568B4220D02A23D356032092
:102C90008B4210D0124B1A781970A271BFF35F8F5C
:102CA00000220B4B1A608CF31088F8BDB2680D48F7
:102CB000D050EFE7002043001B189B00D218FF23E1
:102CC0009371094B9380E5E70120F4E70220F2E7D6
:102CD000240100D000ED00E014020020AAAA0000A8
:102CE000230F0020CD01001000BDFFFF054B064A59
:102CF0001360064A136053609360D360136153619D
:102D0000936170478080808000E400E004E400E08C
:102D1000F0B5C646040000B50C2090461F000E001A
:102D200001F0C2FB4101091A8D01691AC900091895
:102D30008901404601F0B8FB069B3F041A03236853
:102D40001743002B22DB184B184DE21853425A410F
:102D500080235B019C461203154B62441A60154B9D
:102D60001A601100AB689943FBD1C022231D920168
:102D70001A4321232660A06013602368002BFCDA2D
:102D80000823E760136080BCB846F0BD3F2322688B
:102D90001340B342D7D1A3681B051B0D8342D2D188
:102DA000E368002FCFD1EEE70040FDBF00C0004038
:102DB00000E0004000F000408023024A9B000343F3
:102DC000D362704700800540AA23064A1B011360A6
:102DD0002F230549D360054B19605368002BFCDA9B
:102DE0007047C0460040024000B0FA000060024058
:102DF0009A4200D2885470477047C046F8B557468B
:102E00004E464546DE46E0B599460A9B07009A467F
:102E10000D9B8846934615000B9E9B0710D10C9B7B
:102E20009E420DD29D1B14000E005D4422004B46B5
:102E3000013431002020B847A542F7D1B0460B9E9F
:102E4000002E27D0444675195346AA1B013E985DB3
:102E500021004B46B847002EF6D123002C0098469F
:102E60000D9B9B070FD55B46E51A0C9BAB420AD91D
:102E70004646984622004B46310020200135B8478F
:102E80000134A845F6D82000F0BCBB46B246A9469E
:102E9000A046F8BD2C00E3E7F0B54F464646D646BF
:102EA000C0B584B098460EAB1B78129F99469446E5
:102EB0000D9C109B119EBA0725D4002E4BD19C422D
:102EC00000D3BFE001223A4092461F2C00D9B8E05F
:102ED0000C9A551E302201E0202C03D001342A55D3
:102EE000A342F9D85246002A0DD0A6420BD9202C75
:102EF00044D00C9A551E302201E0202C3ED00134E3
:102F00002A55B442F9D1FA064DD57A053FD4002CA2
:102F100039D10F9B102B00D179E00F9B022B00D1F0
:102F20008AE030230C9A012413704B46002B3FD0CB
:102F30002D230C9A135501340C9B62460093039782
:102F4000434602960194FFF759FF04B0E0BCBA462D
:102F5000B146A846F0BD012215003D40AA463A42BE
:102F60002FD04A46002A02D10C323A4200D0013E0C
:102F70009C42BAD21F2CABD9202E27D92024FA0686
:102F8000DAD57A0503D4A3422DD0A6422BD00F9BCD
:102F9000102B32D0022B20D0202CCDD030220C9BF5
:102FA0001B191A700134202CC6D04B46002BBFD100
:102FB0007B070DD43B07BFD520230C9A1355013452
:102FC000BAE79C429FD21F2C00D881E720249AE7C1
:102FD0002B230C9A13550134AEE7202CACD00C9B5C
:102FE0001B1901343AE0631E012C92D00F9A102A6B
:102FF0002AD0022A2FD01C00D0E7BB060ED4202CEA
:103000009AD00C9B1A19013478231370C4E7BB06BD
:103010000DD478230C9A01241370BFE7202C00D123
:103020008AE758220C9B1B191A700134B4E7582305
:103030000C9A01241370B1E70C9A603301241370C9
:10304000ACE7202400265EE7023CBA06E9D40C9ADD
:1030500012191C00D8E70C9A9246534462221A7047
:103060009AE7C04610B5002800D110BD02F074FAEE
:10307000FBE7C0460B0010B5002802D049681B686A
:10308000984710BDF0B5DE4657464E464546E0B57A
:103090009BB09B46249B89469846259B0B900C929F
:1030A0004046424619009A4601F0CFFC002800D065
:1030B000D8E0012240465146774B524201F0C0FC15
:1030C000002800D0CEE0012240465146734B5242C8
:1030D00001F0A0FC002800D0C4E0002200234046FC
:1030E000514601F097FC002800D0B9E14246534612
:1030F0000A9209938023289ADB001A400E92289A9C
:103100001A4201D1062326930A9A099B16001343FB
:1031100000D0C7E0289B002500261B0500D49BE1BA
:1031200000230D93269A0D9B9A4200DC9FE1D01A52
:10313000431E26938023289ADB001A43002300278E
:1031400028920D93279B0024BB4200D9DC1B02234D
:10315000289A1A400E92289A134203D07B427B4150
:103160005B421C400D9B002B07D00A9809992A004E
:10317000330001F0EEFB0A90099100220023404643
:10318000514601F047FC002805D080200006844607
:10319000099961440991289A414B0B9D134004936E
:1031A000269B0A9A0293099B039400920193494635
:1031B0005B4628000C9A00F08BF90400002F62D0C7
:1031C000289B220098061F23C0179843631C98462B
:1031D00049465B466530A8470D9B0025DA179C18C9
:1031E000DB0F9A465440013F01E0202D13D00AAA7C
:1031F00094461F23200063440A2101355E1901F023
:1032000053F93031317020000A2101F04DF92600C8
:103210000400092EE9D805230693002304930A33FA
:103220000393534605970B9F029312AB00934246BC
:103230005B46494638000195FFF72EFE0E9B0400C1
:10324000002B20D00C9BC51A279BAB421BD91E001C
:1032500022005B46494620200135B8470134AE4282
:10326000F6D810E0289B42460493279B49460393D7
:10327000269B0B9802935346009201935B460C9A4F
:1032800000F026F9040020001BB0F0BCBB46B2469B
:10329000A946A046F0BDC046FFFFEF7FFFFFEFFF4E
:1032A000FFF7FFFF734B099F9C467800400D604479
:1032B00001F0DEFB704A714B01F069FB704A714B03
:1032C00001F03EFB3B03704A1B0B1A4304000D0048
:1032D000300011006D4B002201F029FB6C4A6D4B50
:1032E00001F055FB02000B002000290001F028FB33
:1032F00001F0D6FB0D9001F0BBFB674A674B040061
:103300000D0001F044FB0022654B01F019FB01F0B8
:10331000C7FB644A0600644B2000290001F037FB1C
:10332000040030000D000F9601F0A2FB5F4A604BD5
:1033300001F02DFB02000B002000290001F0F7FA3C
:1033400002000B0006000F0001F021FB3200040018
:103350000D003B003000390001F0F2FA002210901D
:103360001191544B2000290001F0F3FA0022524B36
:1033700001F0E6FA02000B002000290001F0E9FA52
:1033800000224E4B01F0DCFA02000B002000290065
:1033900001F0DFFA0D008021040032003B00002024
:1033A000C90501F0C4FA02000B002000290001F059
:1033B000C7FA02000B001098119901F0CAFA002216
:1033C000314B01F0BDFA3E4B0F9C9C4664440022F9
:1033D000230501F0DCFA05000E0002000B000A983C
:1033E000099901F017FB00280AD00D9B2800013B2A
:1033F00031000D930022304B01F0ABFA05000E00B6
:10340000C6270D992B0063318F42BF4128997F4217
:103410000437090500D495E6334300D182E6099CC0
:10342000284A2100284B0A9801F002FB002808D006
:1034300000222100254B0A9801F0ECFA002800D068
:1034400070E6269B002B00D17CE60E9B5A1E934112
:10345000269AD31A269375E6002304270D9371E666
:1034600043460A9380231B065344099342E60023F4
:1034700026935FE601FCFFFFFB799F501344D33F87
:10348000B3C8608B288AC63F0000F03F0000F83FB9
:1034900061436F63A787D23F71A379094F930A40B5
:1034A0000000E03F1655B5BBB16B0240EF39FAFEA4
:1034B000422EE63F00002C4000002440000018404F
:1034C000FF0300002D431CEBE2361A3F80842E419F
:1034D000F0B54E46DE4657464546E0B597B09946AC
:1034E000209E219F229B8346984607910C923B0089
:1034F00032003000390001F0A8FA002800D0A9E11C
:10350000012230003900CA4B524201F083FA0028F0
:1035100000D0E1E0012230003900C64B524201F0F8
:103520008FFA002800D0B7E0002230003900C24BEB
:1035300001F086FA002800D099E00022300039001E
:10354000BE4B01F067FA002800D090E00022002373
:103550003000390001F05EFA002800D0B1E000230D
:103560000D93249B5B0501D40623984608AB9C462B
:103570001722002430234146624404E001341355ED
:103580000139202C01D00929F8D8884630003900AB
:1035900001F086FA4346DA00A94B05009B181A6829
:1035A0005B680892099301F063FA02000B00300097
:1035B000390001F0BCF9089A099B01F0E8F90A907A
:1035C0000B9101F091FA824601F04EFA02000B00D5
:1035D0000A980B9901F0ABF900229A4B0A900B91D3
:1035E00001F02EFA002800D1C0E001239C46E244FD
:1035F000504601F039FA02000B000898099901F0D1
:103600000FFA002802D000239A4601354346002BCA
:103610006AD008AB17269C4608956644554614E0C8
:1036200001235B4243440A2128009A4600F03CFFF4
:10363000013430313719397028000A2100F034FF85
:10364000092D00D8D0E0D0460500202CE8D10EABE3
:1036500098460323249A1340012B00D196E020239F
:10366000249A01930392239A434602921EE0249BDC
:1036700058460493239B00960197039343460C9A64
:10368000029307994B46FFF7FDFC17B0F0BCBB4611
:10369000B246A946A046F0BD249B5B070ED4032288
:1036A000694B249901920391239902910093584602
:1036B0004B460C9A0799FFF7A1FBE6E70422634B00
:1036C000EFE73B0032000020002101F030F9012338
:1036D00006000F000D9344E7249B0393239B029362
:1036E000042301935A4BE1E7280001F0C1F90200DD
:1036F0000B003000390001F01AF9524B002206008D
:103700000F0001F087F90EAB984600280AD100227D
:10371000300039004B4B01F093F9002802D1EB0740
:1037200000D50135202C94D008AA944617232800F0
:1037300063440A2101341E1900F08EFE3031280046
:1037400031700A2100F088FE051EEBD10323249A74
:103750001340012B1BD0202C00D180E70D9B002BA8
:1037600035D02D224146631C0A5579E700220A987C
:103770000B99344B01F04EF9002800D046E7534630
:10378000002B51D101239C46E2443FE72024239B98
:10379000002BE0D00D9B002B03D1249A0C33134255
:1037A00002D0239B013B2393239BA342D3D908AB95
:1037B0009C46172230236244202C00D14FE72399E6
:1037C000013413558C42C6D0202CF8D147E7249BF6
:1037D0005B0724D4249A2300120700D440E7202258
:1037E000414601330A553BE75746089D202C00D13E
:1037F0002DE7220030214046002F09D00132B1547C
:10380000202A00D123E7D3431B191B18002BF5D125
:103810000EAB98462E234146541C8B5482E72B2234
:103820004146631C0A551BE7DB0700D4EEE6A9E717
:10383000FFFFEFFFFFFFEF7F65CDCD4165CDCDC130
:10384000C88000100000E03FCC7E0010D07E001049
:10385000DC7E0010249B0393239B0293032301939C
:10386000004B23E7D87E0010F0B5DE464E465746A3
:103870004546E0B59FB01C00289B91460993C94A74
:10388000C94B8B4608901A60002900D118E200232A
:1038900020789A46002800D11AE226001D005C46D6
:1038A0000AE02A006F1C4B46089D2100A8473D00F6
:1038B00001363078002870D02528F2D110239B469D
:1038C000083B9A46043B9846023B00219C46721CEA
:1038D000107816000300203BDBB2102B03D8B34F47
:1038E0009B00FB589F460300303B092B32D9002335
:1038F0000A932A2868D0002398462E283ED0030039
:10390000683BDBB2122B1CD8A94A9B00D3589F46B8
:10391000012301321943DBE7634601321943D7E73C
:10392000434601321943D3E75B4601321943CFE7DF
:10393000534601321943CBE780235B00707819436B
:1039400001360300253BDBB2532BAAD8994A9B00D2
:10395000D3589F4600270300B800C0190136400025
:10396000C018337830381A00303A0700092AF3D9E2
:103970000A901800002398462E28C0D18023707822
:10398000DB0019430300303B721C092B00D8A1E176
:103990002A2800D1B2E11600B1E7A346AA462C00BE
:1039A000D14503D801235B424B449A464B465246CD
:1039B00059460020089DA84720001FB0F0BCBB4618
:1039C000B246A946A046F0BD099B40CB0A96002E00
:1039D00003DB50780993561C8DE728380143704269
:1039E0000A9009935078561C85E7782800D1DFE1CA
:1039F000582800D14CE26F2800D14FE3622801D152
:103A000000F030FC10230A009A430B92692801D081
:103A100000F0A9FC0A230C934B0500D5D0E10B9ACA
:103A2000802311009B0019408B461A4200D0A1E26E
:103A3000802311005B0019408A461A4200D0B6E389
:103A400013005B0600D5EDE2130009991B0601D4B3
:103A500000F076FC08C91BB2D8171A18424092B27F
:103A600009919346DA0F1292002B09D1802310227C
:103A70000B99DB000B4091430B91002B00D0E4E24B
:103A80000B9A6123920600D541230EA91F228C4672
:103A9000DBB262440A3B5F461395A34655460C9C35
:103AA000B2460D9316000AE03033DBB20135735590
:103AB000A74200D2EDE2202D00D1EAE2070021006A
:103AC000380000F0F1FCCBB20929EDD90D9A9446EB
:103AD0006344DBB2EAE780239B0070781943013628
:103AE0002FE77078682800D1CDE180230136194393
:103AF00027E770786C2800D1BFE180235B00194371
:103B000001361EE7462800D19BE10722099B04915C
:103B1000073393430A9A19000392424602920CC952
:103B200008980092019309912A004B462100FFF763
:103B3000CFFC01360500BCE62A006F1C4B46089DF1
:103B400021002520A84701363D00B2E68B0700D4AE
:103B5000ADE1099B2A009A466B1C9846534601CB5F
:103B600021009A46089F4B46C0B2B8470A9B9C4624
:103B70006544012B00D886E2089B4746B0462600E4
:103B80004C4699463A002300013731002020C847AF
:103B9000AF42F7D1A1465346340046460993013659
:103BA00087E6C04669380010DC0E0020E47E001075
:103BB000287F0010747F0010099B04CB9B4643466E
:103BC0000992002B00D1C6E013789C46002B00D14F
:103BD000BDE34346013B099A0133D0180A9F130005
:103BE00001E0834203D05A780133002AF9D1099ABF
:103BF0000A979B1A0B9380230A00DB001A400C9251
:103C0000194204D00B9B434501D943460B93022331
:103C10001A000A400D920B4200D187E1604600284D
:103C200000D168E10C9B002B00D10DE1A844C246F5
:103C3000099B57465B1B9846089BB2462A00260004
:103C40004C46994609E023003100551CC8474346BD
:103C5000585D002800D126E12A009742F3D1A14601
:103C60003D00340056460D9B002B00D043E15B46DF
:103C7000013609931DE6099B1A0008CA9246002BDB
:103C800048D0212211438B460EA884461F2161444F
:103C9000099500220F27A4460D0002E0202A0CD02F
:103CA0000B003C001C4020003730092C00D807389E
:103CB0000132A85419090F2BF0D86446099D32E04F
:103CC000DC4B2078089300239A46002800D0E4E5D6
:103CD000002465E6434606000A9F9800C01801329A
:103CE000400080191678030030003038303B092836
:103CF000F3D93000984616000A9700E6099B023671
:103D000004CB9046D2434046D217104080460993D8
:103D10003078F4E5102208009043113210438346B6
:103D200000224905B0D55B46069308230593434618
:103D30000493102303930023029316AB0192009384
:103D40002A004B4621000898FFF7A6F853460500C5
:103D500001360993ADE513789C46002B00D1F7E2BC
:103D600002235B4237E7202302009A43472A04D10B
:103D700080231B01194302239843452801D12023A6
:103D800019430722099B0491073393430A9A1900A8
:103D90000392424602920CC908980092019309913D
:103DA0002A004B462100FFF76DF90136050080E53A
:103DB00010230C930C230A009A430B924B0503D556
:103DC00001230B9A9A430B92692800D127E66428B5
:103DD00000D124E60B9A802311009B0019408B46EA
:103DE0001A4200D066E1802311005B0019408A4628
:103DF0001A4200D039E213005B0600D53CE1130003
:103E00001B0600D4A6E2099B04CB1204120C9346B5
:103E100009935B46002B00D09AE10B9A10331100F6
:103E200099430B91520500D492E100239A460B9BD3
:103E300006930A9B0593434604930C9B039300232C
:103E40000CE12023194360E6099B0A9A5B1B984604
:103E50004B4691461F00B2462600089C2A003B00B4
:103E60003100A04743460135585D0028F6D14A4647
:103E70003400B94656460A92F5E6C0239B00B07856
:103E8000194302365DE5C023B0781943023658E580
:103E90000C230A009A4314331A43103B0B920C93E1
:103EA0004B058DD496E7A14634005646DBE60A9AC8
:103EB000012A00D853E26B1E9F18089BB0462600CB
:103EC0004C4699462A002300013531002020C8477E
:103ED000BD42F7D1A14634004646099B3A0001CBCA
:103EE000210098467D1C4B46089FC0B2B847434608
:103EF00001360993DDE40B9B0A9AA8469A4200D842
:103F0000B5E694466544ED1A089B4746B046260040
:103F10004C4699463A002300013731002020C8471B
:103F2000AF42F7D1A14634004646A0E60B9A0A9963
:103F3000531C914200D814E24B199B1A1F00089B96
:103F4000B24626004C4699462A002300013531002E
:103F50002020C847BD42F7D10A9BA14601330B93ED
:103F6000099B34001B7856469C466046002800D0CA
:103F700058E67CE60722099B0733934301329446B7
:103F80009C4462465F6809921A68FB17109311936C
:103F900010981199030053400E930B007B400F9330
:103FA00094460E9A0F9B121A8B410E920F93FB0FA1
:103FB0006246129300233A439B463DD00B9A6123FD
:103FC000920600D541230022DBB20EA90A3B8C46A3
:103FD00092460D9343461F326244139515965546FB
:103FE0000E9E0F9FA24690460C9C14930CE030321C
:103FF000D2B2434601355A55BB4500D18AE1202D46
:1040000000D18AE106000F002200002330003900B1
:1040100000F08CFAD2B2092AE9D90D9B9C46624481
:10402000D2B2E6E7FF23099904C913401A000991A7
:1040300017E5C046F92D00100B9A10331100994373
:104040000B915205BAD500239A460B9B06930A9B07
:104050000593434604930C9B0393129B0293534690
:10406000019316AB2A00009321004B460898FEF7F7
:1040700013FF013605001CE4FF22099B02CB11400F
:104080008B460993C5E65346454609930136FFF72B
:1040900010FC56465C46AA46139DD6E708230C93AF
:1040A0000B910B99642800D084E60B9B5B0500D52F
:1040B00086E6B4E40722099B073393430132944612
:1040C0009C44624609921A685B6810009B46130084
:1040D0005A46134307D10B9A1033110099430B91A1
:1040E000520500D5A1E60B9A6123920600D5412323
:1040F0000022DBB20EA90A3B8C4692460D93434642
:104100001F3262445F461295A34655460400B246EC
:1041100090460C9E13930DE03032D2B243460135E7
:104120005A550023BB4200D100E1202D00D100E10F
:1041300004000F00320000232000390000F0F6F9DF
:10414000D2B2092AE8D90D9B9C466244D2B2E5E777
:104150000B9A6123920600D54123DBB20EA90A3BDC
:104160001F228C460D93230062445C461295170073
:1041700055469B46B2460C9E08E03033DBB2013513
:104180007B55B4420ED3202D0CD00400310020000A
:1041900000F08AF9CBB20929EFD90D9A944663440D
:1041A000DBB2ECE756465C46AA46129D3FE6099B09
:1041B0001A0008CAD91713925A184A409246DA0FC1
:1041C0001292002B08D1802310220B99DB000B40A8
:1041D00091430B91002B2BD10B9A6123920600D5B2
:1041E00041230EAA1F279446DBB20A3B0D95674474
:1041F0005D460993A3465446B2460C9E08E0303310
:10420000DBB201357B55B4420ED3202D0CD0040017
:104210003100200000F048F9CBB20929EFD9099A02
:1042200094466344DBB2ECE756465C46AB460D9DD4
:104230000B9B2A0006930A9B210005934346049397
:104240000C9B08980393129B013602935B460193E3
:1042500016AB00934B46FEF71FFE139B0500099318
:10426000FFF727FB02230C931AE7099B04CB924626
:104270001293002A08D1802310220B99DB000B40F7
:1042800091430B91002B2BD10B9A6123920600D501
:1042900041230EAA1F279446DBB20A3B0D956744C3
:1042A0005D460993A3465446B2460C9E08E030335F
:1042B000DBB201357B55B4420ED3202D0CD0040067
:1042C0003100200000F0F0F8CBB20929EFD9099AAB
:1042D00094466344DBB2ECE756465C46AB460D9D24
:1042E0000B9B2A0006930A9B2100059343460493E7
:1042F0000C9B08980393002302935B46019316AB33
:1043000000934B46FEF7C8FD129B0500099301364A
:10431000FFF7CFFAB44200D871E6149B54460E96CC
:104320000F97AA469846159E139D8EE6A64200D882
:10433000FBE6139B56469846AA465C46129D76E5D8
:1043400008C9D8171A1842400991FFF78AFB0023C1
:104350000B9350E4099B04CB9346099359E52F0036
:10436000BBE50B9301E6063B0C939AE60EB40122E3
:1043700010B585B007AC08CC010000945242044847
:104380000394FFF771FA05B010BC08BC03B01847DE
:10439000F12D001000B585B003910121029000932A
:1043A000034813004A4202A9FFF75EFA05B000BDB8
:1043B0007530001010B5094A0300146884B0002C51
:1043C00008D0012200910648524203A9A0470120CB
:1043D00004B010BD01F010F90020F9E7DC0E002058
:1043E0006530001001480421014B1847600200208D
:1043F00015440010142310B50100188804331B88DD
:10440000984710BD162310B50100188802331B8889
:10441000984710BDF8B54746CE4680B50F1E19D057
:1044200014239946043304000025012698464B4680
:104430001888434621681B88984701C4431E984149
:10444000013540420640AF42F1D13000C0BCB94610
:10445000B046F8BD0126F8E7124A936F9B0815D2C3
:104460009066D166002905D0FFE7FFE7FFE7516FAF
:10447000106F704704B580210906C217514000280B
:1044800000D0C84302F0C8FA002104BDF0B5146E94
:10449000556E576F166FFFF7E3FF14665566576743
:1044A0001667F0BD000000D0114A936F9B0813D22D
:1044B00010665166002905D0FFE7FFE7FFE7516F5F
:1044C000106F704704B5002801D00020C04302F0EF
:1044D000A3FA002104BDC046F0B5146E556E576FA7
:1044E000166FFFF7E5FF1466556657671667F0BD50
:1044F000000000D094464E4A926F9208624601D264
:1045000030E0C046F0B54A4EB56F6D08FCD3346E4E
:10451000756E776F366F00F025F89446444A14663E
:104520005566576716676246F0BDC0469446404AD6
:10453000926F9208624601D258E0C046F0B53C4EF8
:10454000B56F6D08FCD3346E756E776F366F00F003
:104550004DF89446364A14665566576716676246A4
:10456000F0BDC046002B24DB11D000293EDA00B597
:10457000C943404200D1013100F038F8C9434042FC
:1045800000D10131DB43524200D1013300BD002A8A
:10459000EBD1002801D1002905D00020C90FC9079F
:1045A00001D1C043410800B502F02EFA00220023D9
:1045B00000BD00B500290ADBDB43524200D10133C4
:1045C00000F014F8C943404200D1013100BDC94395
:1045D000404200D10131DB43524200D1013300F0AF
:1045E00005F8DB43524200D1013300BD002923D13D
:1045F000002B18D1002A0CD0BC460D4F38667A66C5
:1046000000210023FFE7FFE7FFE77A6F386F674677
:104610007047002801D00748010000B502F0F4F906
:104620000022002300BD02000B0000200021704783
:10463000000000D0FFFFFFFF002B00D0BFE0130CF5
:1046400028D1002AE7D080B4114F39667A66FFE797
:10465000FFE730B4040C7B6F396F1B0423433B66C8
:104660007A66FFE7FFE7FFE7C04684B27B6F3D6FE6
:104670001B0423433B667A66FFE7FFE7C04600233F
:104680002C042D0C7A6F386F00196941B0BC70474B
:10469000000000D0F0B594460025140E01D112029E
:1046A0000835140F01D112010435940F01D1920085
:1046B0000235D40F01D152000135D40B0134254FFE
:1046C0007C66254C3C660E0C93B2FFE7FFE7FFE7E4
:1046D0003C6F6643360C7703BE467343DF0B5B04C7
:1046E000C01AB941130C7343DB18C91ACE086643CC
:1046F000360CB64493B273431F0F1B01C01AB94165
:10470000130C73431F0B1B05C01AB941860D8F0292
:104710003E436643360C092D24DB520A7243801A4D
:104720007703460A6643360C16235B1BDE40DF40E8
:10473000BF1964466643821B704604350633010088
:10474000D940A840C01900D30131A24206D20023AB
:10475000F0BD0000000000D0FFFFFFFF121B013082
:10476000F3D3F1E709277F1BFE406446A2B27243F0
:10477000801A00D20139220C7243130C1204821ADF
:1047800099410B007046043513370100F940A840E9
:10479000801900D30131002B02D1A2420AD2F0BD10
:1047A000013000D30131121BFAD2013BF8D1A242F1
:1047B00000D2F0BD013000D30131121BF7E7F0B594
:1047C0001C0C00D080E00CB400251C0A04D11B0294
:1047D000160E3343120208351C0B04D11B01160FB1
:1047E0003343120104359C0B04D19B00960F3343D5
:1047F00092000235DC0B02D192185B4101351C009E
:10480000971864410134464F7C66464C3C660E0C5A
:10481000FFE7FFE7FFE7C0463C6F6643360C7703D0
:10482000BE4697B27743C01B00D20139C01B00D2ED
:1048300001399FB27743C91BC91B170C77437E040C
:10484000FF0B801BB941CE086643360C0C2D33DBC1
:10485000B644120B1F053A431B0B97B27743C01B9C
:1048600000D201399FB27743C91B170C77433E042E
:104870003F0C801BB941860D8F023E4366432927BA
:104880007F1BFE400C3D7746AF40BF1930BCA2B243
:10489000ABB272437343801A9941220C7243130CDA
:1048A0001204801A994102000B000137001BA94134
:1048B000F9D2781E0021F0BD0C277F1BFE40774601
:1048C0007F0BAF40FF19E0E700245D1C07D0144FB9
:1048D0007D663966FFE7FFE7FFE7FFE73C6F95B2CC
:1048E0009EB265436643401BB141150C1E0C6543E7
:1048F000664336042F0C3E432D04401BB1419942C0
:1049000004D202000B0020000021F0BD01D1904232
:10491000F7D3801A994101349942F2D3F6E70000A7
:10492000000000D0FFFFFFFF48404140484018B45E
:104930001B4B5B68FC46019308BD04DFDF4B001096
:1049400018B4174B1B68FC46019308BD00DFE94B08
:1049500000109446134A926F920809D2624618B426
:104960000F4BDB68FC46019308BD0CDFA14E001025
:104970000C4AF0B5146E556E576F166F6246FFF70E
:10498000EEFF084A1466556657671667F0BD18B4FF
:10499000034B9B68FC46019308BD08DF454D0010A2
:1049A000F00B0020000000D0FFB5504042405040C6
:1049B00059404B40594000E0FFB5154F4C00640D85
:1049C00003D0BC4204D10C0314D80020090D090502
:1049D0005C00640D03D0BC4204D11C030AD8002241
:1049E0001B0D1B0501264B4009D44B4003D58B42C0
:1049F00000D18242FFBD9942FCD19042FFBD0B43E2
:104A0000DB1803431343F5D0C9434918FFBD000029
:104A1000FF07000000B5FFF7CFFF804100BDC04693
:104A200000B5FFF7C9FF01D9002000BD012000BD7E
:104A300000B5FFF7B9FF01D9002000BD012000BD7E
:104A400000B5FFF7B1FF804100BD012040054A00DD
:104A5000121804D85A00121801D8002070470120FB
:104A600070470020704700000021002805D17047E2
:104A7000C1174840401AFAD0C90713B5064B1B6846
:104A800098470CBC441CA2401005120B0349091B9B
:104A900009051943114310BD000F00201F04000039
:104AA00010B54C00620D8023D218DB00D21A5B05D2
:104AB0007E2A10DD9E3A13DACC1709034908194300
:104AC0005242D140640001341532202A05DAD04028
:104AD0000843604310BD002010BD0846604310BD70
:104AE000C80FC018013810BD18B4044B5B6AFC46EF
:104AF000019308BD24DF515000100000F00B00208E
:104B000018B4044BDB6FFC46019308BD7CDFD15029
:104B100000100000F00B0020132370B51D78012D4C
:104B200015D010DD1C48FFF76DFC1C4C01008022E5
:104B3000200000F0F9FB022D06D01948FFF75AFCBF
:104B4000184B186070BD154C174BA364F5E7164B56
:104B5000124C23606360A360E36023616361A3611F
:104B6000E36123626362A362E36223636363A3631B
:104B7000E36323646364A364E36423656365A365FB
:104B8000E36523666366A366E36623676367A367DB
:104B9000E367A364D1E7C04653440000F00B002054
:104BA0004C330000000F0020AD4B001007B56046ED
:104BB00001880A0A0230DF2AFAD1C9B2820804D376
:104BC000028840880004104300E00068014A505009
:104BD000039007BDF00B00200FB403BC0CBCF0B574
:104BE0000124E407634000E0F0B50C0DCF0F661E12
:104BF0003605891B640503D3C943404200D3013104
:104C0000640D03D0661CF60A07D0E41B00207F0069
:104C1000791C89078912803C24031D0DDF0F6E1E4D
:104C200036059B1B6D0503D3DB43524200D3013392
:104C30006D0D03D06E1CF60A07D0ED1B00227F001D
:104C40007B1C9B079B12803D2D032F1B661B58D49A
:104C5000A446202E46DA20371400BC401D00BD407B
:104C6000F24033412A4380185941CB0F05D0C94344
:104C7000C043002264425041514162464D0D28D14B
:104C80000D0D07D100281FD0241940414941013A98
:104C90000D0DF9D0640006D3013000D30131002C92
:104CA00001D140084000013A0BD4941CE40A04D11D
:104CB00012051144DB071944F0BDD907204B1943F5
:104CC00000E0D9070020F0BD0029DDD1002CDBD1A8
:104CD000F0BD0132C6074008CD0728434908002E21
:104CE000E1D0D9E73C2E29DA203E40371400BC4001
:104CF00000D00124F24014431A00BB401C43D317D8
:104D0000ACE7AC46202F08DA20360400B4400D0092
:104D1000B540F84039412843A5E73C2F0CDA203F45
:104D200040360400B44000D00124F8400443080099
:104D3000B1400C43C117EAE710001900002494E7C2
:104D40000000F07FF0B50C0D661E3605891BE60AE3
:104D50006405640D02D0651CED0A04D00020012119
:104D60000905803C2403A4461C0D671E3F05DB1B80
:104D7000E70A6405640D02D0651CED0A04D0002228
:104D800001231B05803C24037740644497B484B21C
:104D900096B27443070C7E43150C6F4380B2684390
:104DA000361802D3012000043F183004350C0019D6
:104DB0007D41844688B29AB250430C0C62431F0C6A
:104DC0007C438EB27E43921902D301263604A41985
:104DD0001604170C3618674101BC81B29AB25143D0
:104DE000040C62431B0C5C4380B25843121802D37C
:104DF0000120000424181004130C401863412D18DE
:104E00005E410020474106BC88B293B258430C0C67
:104E10006343120C544389B251435B1802D30121FE
:104E20000904641819041A0C091862416D185641D6
:104E30000020474118BCF902720D1143F0026A0DBF
:104E40001043ED020A0D03D16D1940414941013B68
:104E5000124E9B1B7600B3420ED26D0007D3013079
:104E6000002671416646354301D1400840001B05CC
:104E7000C918E4072144F0BD0BDA013306D1013033
:104E800004D101314F0D01D04908F2E7E1070020BC
:104E9000F0BD013631050020EBE70000FF03000004
:104EA000F0B51C0D671E3F05DB1BE70A6405640DAA
:104EB00002D0661CF60A04D0002201231B05803CA8
:104EC0002403D0252D060026F6432E661E096E66A5
:104ED000CE0FF619B44649004F0D02D07E1CF60ADB
:104EE00003D000200021403F3F033E1BB600B444E6
:104EF000013F7F05C91B49082E6F013676089C02C9
:104F0000950D25437543ED137543AD1301356D10B4
:104F1000F603761B0CB4CC02450D2C43A2B2B3B2FF
:104F20005A43270C7B43350C6F43A4B26C431B19C7
:104F300002D3012424043F191C041D0CA4187D4134
:104F400024196D41009A91B2ACB26143170C7C43B5
:104F50002B0C5F4392B25A43A41802D301221204CD
:104F6000BF182204230C52187B41019C6C431B196F
:104F7000520ED9010A434401A01A81B2B2B2514380
:104F800003145A43360C734387B27743D617D219AA
:104F900000277E4136049B191704160C7F185E41CA
:104FA0007316ED18F301002680337541A90F06D161
:104FB0006400690AE8055B0A184309D22FE004225D
:104FC000944480337541A90AA8059B0A184326D347
:104FD000404149412404009A019B0D005543641B44
:104FE0004343E41A95B286B27543170C7E43030C13
:104FF0005F4392B25A43B61802D301221204BF187B
:105000003204330C52197B4152429C41002C02D491
:105010000022013051414008CA071043490802B03C
:105020006246D7079210084BD218084B9A4203D217
:1050300012058918C919F0BD0020002A01DC3900C9
:10504000F0BD01331905F5E7FD030000FE07000080
:10505000002200B5203200F004F8080000BD000076
:1050600000220B150AD410B5944600F05FF8141412
:10507000013400DA0021CB17144C20470020002116
:1050800070476244343A0CD40C2A07DA0400914089
:10509000904052422032D440214310BDD843D943DE
:1050A00010BD203207D40C469440524220321141A8
:1050B000D040204310BD0800C917203203D452420B
:1050C0002032104110BD1800190010BD835000108F
:1050D0004A00520D144BD21A13DDFF2A1EDAD205F4
:1050E000CB0FDB071A43C300400F0903490A0843EB
:1050F00010435B0001D301D0013070474308FBD25D
:10510000704702D0C80FC00770470A03121301325C
:10511000F8D1420F072AF5D1012200E0FF22C80F83
:1051200000028018C0057047800300000A0DCC0FF4
:10513000531E1B05C91A520503D3C943404200D36D
:105140000131520D03D0531CDB0A07D0121B002083
:105150006400611C89078912803A1203014BD21A3C
:1051600070470000FF03000051434343C9188C46B9
:10517000110C83B24B4310B4040C614392B280B261
:10518000504362431C041B0C001910BC594113040A
:10519000120CC018514161447047000007B54840E7
:1051A0004140484001E0C04607B54200120E03D01E
:1051B000FF2A03D1420218D8C00DC0054A00120EC2
:1051C00003D0FF2A03D14A020FD8C90DC905012215
:1051D000414005D4414001D5814207BD884207BD09
:1051E0000143491801D0C043001807BD00B5FFF7BF
:1051F000DBFF01D0002000BD012000BD00B5FFF79E
:10520000CDFF804100BD0000014B5B6A18470000E4
:10521000F00C0020034BDB6FFC4618477CDFB952D3
:1052200000100000F00C0020132310B512481C7869
:10523000FFF7E8F80100012C0AD003DD80220F48B7
:1052400000F072F80E48FFF7D5F80E4B186010BD4D
:105250000A4C5422200000F067F80B4B6365A365ED
:10526000E36523666366A366E36623676367A367F4
:10527000E3672362E361E5E753460000F00C00209A
:105280004C330000000F00208D52001007B560461F
:1052900001880A0A0230DF2AFAD1C9B2820804D38F
:1052A000028840880004104300E00068014A505022
:1052B000039007BDF00C0020C30FDB0741000A0E6E
:1052C00007D0FF2A08D00909054A89181943400761
:1052D00070471900002070470249C918FAE700001A
:1052E000000000380000F07F10B5040000F044FB1F
:1052F000002804D0034B04199C4200D810BD02487A
:10530000FDF7FAF90000042018810010014804217B
:10531000014B18477002002015440010014B1B6818
:105320001847000070020020014B5B68184700001E
:1053300070020020030010B5080011001B68984798
:1053400010BDC046F0B546464F46D646C0B5437C74
:1053500080460E001700002B46D0002A3FDD4B1E72
:105360009946244B0125002400209A460DE04B4627
:105370001B5D0D3B5A425341325DDBB20A2A0BD012
:105380002B00013401359F421ADD002CEFD143463A
:10539000325D1B7C0A2AF3D1002BF1D1A04204DA42
:1053A0004346211A1B6830189847434650461B68ED
:1053B00002219847013428002B0001359F42E4DC8C
:1053C000874204DD4346391A1B6830189847F6199E
:1053D000013E33780D3B5A42534142461374E0BCC0
:1053E000BA46B146A846F0BD0368110030009847A0
:1053F000F5E7C046D0810010F0B5C6460C0009683C
:10540000060000B5802906D04B1C23606418267165
:1054100080BCB846F0BD0F4B1D68002D16D0231D73
:1054200098460D4F02E0ED68002D0FD02B68002B41
:10543000F9D03B68002B01D0AB42F4D128004146A3
:105440002268FFF77FFFED68002DEFD101230021D7
:10545000DBE7C046C40E0020CC0E0020F0B5574656
:105460004E464546DE461C00D023E0B51B061F68AD
:10547000344B83B006000D00180001A991469A46EE
:1054800001F0D2FA8046002808D1019B7FB29F42EA
:1054900004D0504601F0D8FA012398466B1C03D182
:1054A000300000F035FE0500002C27D1264F274B99
:1054B0001C68002C18D04B46002B21D1244B994658
:1054C00002E0E468002C0FD02368002BF9D04B4693
:1054D0001B68002B01D0A342F3D120002A00310029
:1054E000B847E468002CEFD14346002B25D103B028
:1054F000F0BCBB46B246A946A046F0BD154FD6E764
:10550000134B99460A239B4602E0E468002CEBD03B
:105510002368002BF9D04B461B68002B01D0A34217
:10552000F3D12A0031002000B8475A466B462000CC
:105530001A7101A90122B847E7E7504601F05CFA69
:10554000D5E7C046D00A002045530010C40E002005
:10555000CC0E002035530010F0B5CE46474680B53E
:1055600083B06B46DE1CD02330701B061C681F4BBB
:10557000804601A91800994601F056FA071E20D06E
:105580001B4B1C68002C28D01A4D02E0E468002C4C
:105590000FD02368002BF9D02B68002B01D0A34239
:1055A000F4D1200001223100FFF7CCFEE468002C8A
:1055B000EFD1002F11D1404603B0C0BCB946B04670
:1055C000F0BD019B64B29C420BD0484601F03CFA0E
:1055D000074B01271C68002CD6D1484601F00CFA75
:1055E000E9E7034B1C68002CCED1E4E7D00A002089
:1055F000C40E0020CC0E002070B5040000F088FD21
:1056000000230100050001222000FFF727FF084BBF
:105610001C68002C06D06368002B05D09847E4680E
:10562000002CF8D1280070BDE468002CF3D1F9E714
:10563000C40E0020F0B54746D64680B516000F00D0
:1056400083B0002831D11D4B1D4D1A685B68019253
:1056500000931C4B9A461C4B984653461C68002CE2
:1056600003D114E0E468002C11D02B68002B01D08A
:10567000A342F7D1A368002BF4D03100380098473B
:105680000028EFDD03B0C0BCBA46B046F0BD002133
:105690000120FCF799FC434600995B6A9942DCD8EB
:1056A00042460198926A824202D301204042E9E7D1
:1056B0009942D2D001204042E4E7C046807E0010EB
:1056C000CC0E0020C40E002000400540F0B54F462F
:1056D000D6464646C0B50D00170082B0012842D11B
:1056E000D0231B061C68214B01A918009A4601F023
:1056F0009BF98146002808D1019B64B29C4204D0EA
:10570000504601F0A1F901239946B8467B1C03D10C
:10571000280000F0FDFC8046154B1C68002C14D0BE
:10572000144E02E0E468002C0FD02368002BF9D05F
:105730003368002B01D0A342F4D120004246290057
:10574000FFF700FEE468002CEFD14B46002B06D19A
:10575000380002B0E0BCBA46B146A846F0BD50469B
:1057600001F04AF9F4E701277F42F1E7D00A00206F
:10577000C40E0020CC0E00200D4A1368002B13D05D
:10578000834202D109E0984208D01A00DB68002B5E
:10579000F9D1002900D0D06070471A000029FBD150
:1057A000DB68D360C160F7E70029F5D01060F3E74C
:1057B000C40E0020F0B54746CE46D02380B51B0668
:1057C0001D682E4BA5B007000C00180003A99846D1
:1057D00001F02AF9061E07D1039B6DB29D4203D04A
:1057E000404601F031F901368422002103A8FFF779
:1057F00095FD23003A00224803A9FEF7CBFD039B49
:105800000700002B14D11F4B1C68002C06D06368C6
:10581000002B0BD09847E468002CF8D1002E27D13C
:10582000380025B0C0BCB946B046F0BDE468ECE72E
:10583000144B1D689946002D1ED0134C02E0ED68F4
:10584000002D11D02B68002BF9D02368002B01D03C
:10585000AB42F4D1039B28001A0004A90193FFF77F
:1058600071FDED68002DEDD14B4603951C68CCE72A
:10587000404601F0C1F8D3E70395CFE7D00A0020F6
:10588000F9530010C40E0020CC0E00200FB400B558
:1058900083B004A901C90191FFF78CFF03B008BCD4
:1058A00004B0184710B500F043F810BDF0B50D1E58
:1058B00015DD0E4B0D271A680D4B4519D3185942AB
:1058C0004B410C495B005E5E20210478A64207D064
:1058D00093691942FCD101301460A842F5D1F0BDA2
:1058E00093691942FCD11760F2E7C0461C0F0020F3
:1058F0000080FCBF180F002030B504000D1E12DD23
:1059000000201021094B013C1A689369194208D103
:10591000013093691942FCD1136823548542F4D1B4
:1059200030BD0028FCD103204042F9E71C0F0020C5
:10593000E12110B50B4B0C481B780C4B49021B782E
:105940000B4B1860FBF796FF02210020FBF77EFD52
:1059500002210120FBF77AFD01210648FFF70CFF29
:1059600010BDC04634820010004003403882001051
:105970001C0F00208002002010B5034B01001868A6
:1059800000F004F810BDC04694020020F0B54E4669
:105990004546DE465746E0B50D000B35060083B0A0
:1059A000162D22D8102900D9B2E000F0B1FA102546
:1059B00018230220CC4FFB181A005C68083A944266
:1059C00000D1B5E0032362689A431300E268A1683E
:1059D000CA6091600122E318596830000A435A6096
:1059E00000F09EFA2000083095E007239D4300D583
:1059F0008EE0A94200D98BE000F08AFAFC235B001C
:105A00009D4200D2A7E1680A00D18BE0042800D9AA
:105A10007AE138239846A80980443930C100B24F52
:105A200079184C680839A1420ED003239C4604E043
:105A3000002ACBDAE468A14206D062466368934349
:105A40005A1B0F2AF4DD40463A003C690832944262
:105A500000D178E003236168994389460B00491B14
:105A60000F2900DD7BE17A613A610029B2DA8022F8
:105A70009200914500D30FE15909DA0801238B40C8
:105A8000D2007968D2190B4391687B60E260A16013
:105A90009460CC60012182109140994259D80B4208
:105AA00005D103229043490004300B42FBD003236D
:105AB0009846C3009946B944CC4682466346DC68A2
:105AC000A44507D12CE1002A00DB35E1E468A445B8
:105AD00000D125E14246636893435A1B0F2AF2DD49
